{
  "contractName": "Admins",
  "abi": [
    {
      "inputs": [],
      "payable": false,
      "stateMutability": "nonpayable",
      "type": "constructor"
    },
    {
      "anonymous": false,
      "inputs": [
        {
          "indexed": false,
          "internalType": "string",
          "name": "hash",
          "type": "string"
        }
      ],
      "name": "hashUpdated",
      "type": "event"
    },
    {
      "anonymous": false,
      "inputs": [],
      "name": "listUpdated",
      "type": "event"
    },
    {
      "constant": true,
      "inputs": [],
      "name": "created_by",
      "outputs": [
        {
          "internalType": "address",
          "name": "",
          "type": "address"
        }
      ],
      "payable": false,
      "stateMutability": "view",
      "type": "function"
    },
    {
      "constant": true,
      "inputs": [],
      "name": "numberOfAdmin",
      "outputs": [
        {
          "internalType": "int256",
          "name": "",
          "type": "int256"
        }
      ],
      "payable": false,
      "stateMutability": "view",
      "type": "function"
    },
    {
      "constant": true,
      "inputs": [],
      "name": "requestHash",
      "outputs": [
        {
          "internalType": "string",
          "name": "",
          "type": "string"
        }
      ],
      "payable": false,
      "stateMutability": "view",
      "type": "function"
    },
    {
      "constant": false,
      "inputs": [
        {
          "internalType": "address",
          "name": "_user",
          "type": "address"
        }
      ],
      "name": "addAdmin",
      "outputs": [],
      "payable": false,
      "stateMutability": "nonpayable",
      "type": "function"
    },
    {
      "constant": false,
      "inputs": [
        {
          "internalType": "address",
          "name": "_user",
          "type": "address"
        }
      ],
      "name": "removeAdmin",
      "outputs": [],
      "payable": false,
      "stateMutability": "nonpayable",
      "type": "function"
    },
    {
      "constant": true,
      "inputs": [
        {
          "internalType": "address",
          "name": "_user",
          "type": "address"
        }
      ],
      "name": "isAdmin",
      "outputs": [
        {
          "internalType": "bool",
          "name": "",
          "type": "bool"
        }
      ],
      "payable": false,
      "stateMutability": "view",
      "type": "function"
    },
    {
      "constant": false,
      "inputs": [
        {
          "internalType": "string",
          "name": "_oldHash",
          "type": "string"
        },
        {
          "internalType": "string",
          "name": "_newHash",
          "type": "string"
        }
      ],
      "name": "updateHash",
      "outputs": [],
      "payable": false,
      "stateMutability": "nonpayable",
      "type": "function"
    },
    {
      "constant": false,
      "inputs": [
        {
          "internalType": "string",
          "name": "_oldHash",
          "type": "string"
        },
        {
          "internalType": "string",
          "name": "_newHash",
          "type": "string"
        },
        {
          "internalType": "address",
          "name": "_user",
          "type": "address"
        }
      ],
      "name": "addAdminAndUpdateHash",
      "outputs": [],
      "payable": false,
      "stateMutability": "nonpayable",
      "type": "function"
    }
  ],
  "bytecode": "0x608060405234801561001057600080fd5b50336000806101000a81548173ffffffffffffffffffffffffffffffffffffffff021916908373ffffffffffffffffffffffffffffffffffffffff160217905550604051806020016040528060011515815250600360008060009054906101000a900473ffffffffffffffffffffffffffffffffffffffff1673ffffffffffffffffffffffffffffffffffffffff1673ffffffffffffffffffffffffffffffffffffffff16815260200190815260200160002060008201518160000160006101000a81548160ff021916908315150217905550905050600260008154809291906001019190505550610ef4806101076000396000f3fe608060405234801561001057600080fd5b50600436106100885760003560e01c8063c7299da21161005b578063c7299da2146102c3578063eaec9a4d1461030d578063ed482c401461032b578063fb611e98146103ae57610088565b80631785f53c1461008d57806324d7806c146100d15780634ca9a9791461012d578063704802751461027f575b600080fd5b6100cf600480360360208110156100a357600080fd5b81019080803573ffffffffffffffffffffffffffffffffffffffff169060200190929190505050610520565b005b610113600480360360208110156100e757600080fd5b81019080803573ffffffffffffffffffffffffffffffffffffffff169060200190929190505050610798565b604051808215151515815260200191505060405180910390f35b61027d6004803603604081101561014357600080fd5b810190808035906020019064010000000081111561016057600080fd5b82018360208201111561017257600080fd5b8035906020019184600183028401116401000000008311171561019457600080fd5b91908080601f016020809104026020016040519081016040528093929190818152602001838380828437600081840152601f19601f820116905080830192505050505050509192919290803590602001906401000000008111156101f757600080fd5b82018360208201111561020957600080fd5b8035906020019184600183028401116401000000008311171561022b57600080fd5b91908080601f016020809104026020016040519081016040528093929190818152602001838380828437600081840152601f19601f820116905080830192505050505050509192919290505050610801565b005b6102c16004803603602081101561029557600080fd5b81019080803573ffffffffffffffffffffffffffffffffffffffff169060200190929190505050610a19565b005b6102cb610c36565b604051808273ffffffffffffffffffffffffffffffffffffffff1673ffffffffffffffffffffffffffffffffffffffff16815260200191505060405180910390f35b610315610c5b565b6040518082815260200191505060405180910390f35b610333610c61565b6040518080602001828103825283818151815260200191508051906020019080838360005b83811015610373578082015181840152602081019050610358565b50505050905090810190601f1680156103a05780820380516001836020036101000a031916815260200191505b509250505060405180910390f35b61051e600480360360608110156103c457600080fd5b81019080803590602001906401000000008111156103e157600080fd5b8201836020820111156103f357600080fd5b8035906020019184600183028401116401000000008311171561041557600080fd5b91908080601f016020809104026020016040519081016040528093929190818152602001838380828437600081840152601f19601f8201169050808301925050505050505091929192908035906020019064010000000081111561047857600080fd5b82018360208201111561048a57600080fd5b803590602001918460018302840111640100000000831117156104ac57600080fd5b91908080601f016020809104026020016040519081016040528093929190818152602001838380828437600081840152601f19601f820116905080830192505050505050509192919290803573ffffffffffffffffffffffffffffffffffffffff169060200190929190505050610cff565b005b600360003373ffffffffffffffffffffffffffffffffffffffff1673ffffffffffffffffffffffffffffffffffffffff16815260200190815260200160002060000160009054906101000a900460ff166105c5576040517f08c379a000000000000000000000000000000000000000000000000000000000815260040180806020018281038252603b815260200180610e85603b913960400191505060405180910390fd5b600360008273ffffffffffffffffffffffffffffffffffffffff1673ffffffffffffffffffffffffffffffffffffffff16815260200190815260200160002060000160009054906101000a900460ff16610687576040517f08c379a00000000000000000000000000000000000000000000000000000000081526004018080602001828103825260148152602001807f55736572206973206e6f7420616e2061646d696e00000000000000000000000081525060200191505060405180910390fd5b6001600254136106e2576040517f08c379a0000000000000000000000000000000000000000000000000000000008152600401808060200182810382526038815260200180610e4d6038913960400191505060405180910390fd5b604051806020016040528060001515815250600360008373ffffffffffffffffffffffffffffffffffffffff1673ffffffffffffffffffffffffffffffffffffffff16815260200190815260200160002060008201518160000160006101000a81548160ff021916908315150217905550905050600260008154809291906001900391905055507fa927f03b58a7440efeb9443b28c81fe753e4337116ba36c2f67899f215b54fd360405160405180910390a150565b6000600360008373ffffffffffffffffffffffffffffffffffffffff1673ffffffffffffffffffffffffffffffffffffffff16815260200190815260200160002060000160009054906101000a900460ff166107f757600090506107fc565b600190505b919050565b600160405160200180828054600181600116156101000203166002900480156108615780601f1061083f576101008083540402835291820191610861565b820191906000526020600020905b81548152906001019060200180831161084d575b505091505060405160208183030381529060405280519060200120826040516020018082805190602001908083835b602083106108b35780518252602082019150602081019050602083039250610890565b6001836020036101000a0380198251168184511680821785525050505050509050019150506040516020818303038152906040528051906020012014610944576040517f08c379a0000000000000000000000000000000000000000000000000000000008152600401808060200182810382526060815260200180610dbd6060913960600191505060405180910390fd5b806001908051906020019061095a929190610d17565b507f772dd99b6f5be46fac4afca4f6bada4c6b2f86a7724fa1d23d84511e7158db3e60016040518080602001828103825283818154600181600116156101000203166002900481526020019150805460018160011615610100020316600290048015610a075780601f106109dc57610100808354040283529160200191610a07565b820191906000526020600020905b8154815290600101906020018083116109ea57829003601f168201915b50509250505060405180910390a15050565b600360003373ffffffffffffffffffffffffffffffffffffffff1673ffffffffffffffffffffffffffffffffffffffff16815260200190815260200160002060000160009054906101000a900460ff16610abe576040517f08c379a0000000000000000000000000000000000000000000000000000000008152600401808060200182810382526030815260200180610e1d6030913960400191505060405180910390fd5b600360008273ffffffffffffffffffffffffffffffffffffffff1673ffffffffffffffffffffffffffffffffffffffff16815260200190815260200160002060000160009054906101000a900460ff1615610b81576040517f08c379a00000000000000000000000000000000000000000000000000000000081526004018080602001828103825260158152602001807f5573657220616c726561647920616e2061646d696e000000000000000000000081525060200191505060405180910390fd5b604051806020016040528060011515815250600360008373ffffffffffffffffffffffffffffffffffffffff1673ffffffffffffffffffffffffffffffffffffffff16815260200190815260200160002060008201518160000160006101000a81548160ff0219169083151502179055509050506002600081548092919060010191905055507fa927f03b58a7440efeb9443b28c81fe753e4337116ba36c2f67899f215b54fd360405160405180910390a150565b6000809054906101000a900473ffffffffffffffffffffffffffffffffffffffff1681565b60025481565b60018054600181600116156101000203166002900480601f016020809104026020016040519081016040528092919081815260200182805460018160011615610100020316600290048015610cf75780601f10610ccc57610100808354040283529160200191610cf7565b820191906000526020600020905b815481529060010190602001808311610cda57829003601f168201915b505050505081565b610d098383610801565b610d1281610a19565b505050565b828054600181600116156101000203166002900490600052602060002090601f016020900481019282601f10610d5857805160ff1916838001178555610d86565b82800160010185558215610d86579182015b82811115610d85578251825591602001919060010190610d6a565b5b509050610d939190610d97565b5090565b610db991905b80821115610db5576000816000905550600101610d9d565b5090565b9056fe50726f626c656d206f66206c6973742073796e6368726f6e6f69636974792c20796f7520646f6e2774206861766520746865206c6173742076657273696f6e20616e64206d617962652077726974696e67206f6e206e6577206368616e67657343616c6c206973206e6f7420616e2061646d696e2c206f6e6c792061646d696e732063616e206164642061646d696e73496620796f752072656d6f766520746869732061646d696e20746865726520776f6e277420626520616e792061646d696e206c656674202143757272656e742075736572206973206e6f7420616e2061646d696e2c206f6e6c792061646d696e732063616e2072656d6f76652061646d696e73a265627a7a72315820567f4ed90b73b36f60d6a71bdf31338a4760354b62df9da3effad39b0698c9a364736f6c63430005100032",
  "source": "pragma solidity ^0.5.10;\n\ncontract Admins {\n\n  address public created_by;\n  string public requestHash;\n  int public numberOfAdmin;\n\n  struct user {\n    bool is_admin;\n  }\n  mapping(address => user) internal admins;\n\n  event listUpdated();\n\n  event hashUpdated(\n    string hash\n  );\n\n  constructor () public {\n    created_by = msg.sender;\n    admins[created_by] = user({is_admin: true});\n    numberOfAdmin++;\n  }\n\n  function addAdmin(address _user) public {\n    require(admins[msg.sender].is_admin, \"Call is not an admin, only admins can add admins\");\n    require(!admins[_user].is_admin, \"User already an admin\");\n\n    admins[_user] = user({is_admin: true});\n    numberOfAdmin++;\n    emit listUpdated();\n  }\n\n  function removeAdmin(address _user) public {\n    require(admins[msg.sender].is_admin, \"Current user is not an admin, only admins can remove admins\");\n    require(admins[_user].is_admin, \"User is not an admin\");\n    require(numberOfAdmin > 1, \"If you remove this admin there won't be any admin left !\");\n\n    admins[_user] = user({is_admin: false});\n    numberOfAdmin--;\n    emit listUpdated();\n  }\n\n  function isAdmin(address _user) public view returns (bool) {\n    if (!admins[_user].is_admin) {\n      return false;\n    }\n\n    return true;\n  }\n\n  function updateHash(string memory _oldHash, string memory _newHash) public {\n    require(keccak256(abi.encodePacked(_oldHash)) == keccak256(abi.encodePacked(requestHash)), \"Problem of list synchronoicity, you don't have the last version and maybe writing on new changes\");\n    requestHash = _newHash;\n    emit hashUpdated(requestHash);\n  }\n\n  function addAdminAndUpdateHash(string memory _oldHash, string memory _newHash, address _user) public {\n    updateHash(_oldHash, _newHash);\n    addAdmin(_user);\n  }\n\n}\n",
  "sourcePath": "/home/stadja/workspace/local/scodes/truffle/heg_dab/contracts/Admins.sol",
  "compiler": {
    "name": "solc",
    "version": "0.5.16+commit.9c3226ce.Emscripten.clang"
  },
  "schemaVersion": "3.2.5",
  "updatedAt": "2020-10-07T07:53:40.806Z",
  "networkType": "ethereum",
  "devdoc": {
    "methods": {}
  },
  "userdoc": {
    "methods": {}
  }
}