{
  "contractName": "Contract",
  "abi": [
    {
      "inputs": [
        {
          "internalType": "address",
          "name": "_register",
          "type": "address"
        },
        {
          "internalType": "address",
          "name": "_requerant",
          "type": "address"
        },
        {
          "internalType": "string",
          "name": "_hash",
          "type": "string"
        }
      ],
      "payable": false,
      "stateMutability": "nonpayable",
      "type": "constructor"
    },
    {
      "constant": true,
      "inputs": [],
      "name": "created_by",
      "outputs": [
        {
          "internalType": "address",
          "name": "",
          "type": "address"
        }
      ],
      "payable": false,
      "stateMutability": "view",
      "type": "function"
    },
    {
      "constant": true,
      "inputs": [],
      "name": "hash",
      "outputs": [
        {
          "internalType": "string",
          "name": "",
          "type": "string"
        }
      ],
      "payable": false,
      "stateMutability": "view",
      "type": "function"
    },
    {
      "constant": true,
      "inputs": [],
      "name": "is_obsolet",
      "outputs": [
        {
          "internalType": "bool",
          "name": "",
          "type": "bool"
        }
      ],
      "payable": false,
      "stateMutability": "view",
      "type": "function"
    },
    {
      "constant": true,
      "inputs": [],
      "name": "is_pending",
      "outputs": [
        {
          "internalType": "bool",
          "name": "",
          "type": "bool"
        }
      ],
      "payable": false,
      "stateMutability": "view",
      "type": "function"
    },
    {
      "constant": true,
      "inputs": [],
      "name": "requerant",
      "outputs": [
        {
          "internalType": "address",
          "name": "",
          "type": "address"
        }
      ],
      "payable": false,
      "stateMutability": "view",
      "type": "function"
    },
    {
      "constant": true,
      "inputs": [],
      "name": "updated_by",
      "outputs": [
        {
          "internalType": "address",
          "name": "",
          "type": "address"
        }
      ],
      "payable": false,
      "stateMutability": "view",
      "type": "function"
    },
    {
      "constant": false,
      "inputs": [
        {
          "internalType": "string",
          "name": "_hash",
          "type": "string"
        }
      ],
      "name": "updateHash",
      "outputs": [],
      "payable": false,
      "stateMutability": "nonpayable",
      "type": "function"
    },
    {
      "constant": false,
      "inputs": [
        {
          "internalType": "bool",
          "name": "_is_obsolet",
          "type": "bool"
        }
      ],
      "name": "setIsObsolet",
      "outputs": [],
      "payable": false,
      "stateMutability": "nonpayable",
      "type": "function"
    },
    {
      "constant": false,
      "inputs": [
        {
          "internalType": "bool",
          "name": "_is_pending",
          "type": "bool"
        }
      ],
      "name": "setIsPending",
      "outputs": [],
      "payable": false,
      "stateMutability": "nonpayable",
      "type": "function"
    }
  ],
  "bytecode": "0x608060405234801561001057600080fd5b50604051610a79380380610a798339818101604052606081101561003357600080fd5b8101908080519060200190929190805190602001909291908051604051939291908464010000000082111561006757600080fd5b8382019150602082018581111561007d57600080fd5b825186600182028301116401000000008211171561009a57600080fd5b8083526020830192505050908051906020019080838360005b838110156100ce5780820151818401526020810190506100b3565b50505050905090810190601f1680156100fb5780820380516001836020036101000a031916815260200191505b50604052505050336000806101000a81548173ffffffffffffffffffffffffffffffffffffffff021916908373ffffffffffffffffffffffffffffffffffffffff16021790555033600160006101000a81548173ffffffffffffffffffffffffffffffffffffffff021916908373ffffffffffffffffffffffffffffffffffffffff16021790555081600260006101000a81548173ffffffffffffffffffffffffffffffffffffffff021916908373ffffffffffffffffffffffffffffffffffffffff16021790555080600390805190602001906101da929190610347565b5082600460026101000a81548173ffffffffffffffffffffffffffffffffffffffff021916908373ffffffffffffffffffffffffffffffffffffffff160217905550600460029054906101000a900473ffffffffffffffffffffffffffffffffffffffff1673ffffffffffffffffffffffffffffffffffffffff1663d7e5fbf383306040518363ffffffff1660e01b8152600401808373ffffffffffffffffffffffffffffffffffffffff1673ffffffffffffffffffffffffffffffffffffffff1681526020018273ffffffffffffffffffffffffffffffffffffffff1673ffffffffffffffffffffffffffffffffffffffff16815260200192505050600060405180830381600087803b1580156102f157600080fd5b505af1158015610305573d6000803e3d6000fd5b505050506000600460006101000a81548160ff0219169083151502179055506001600460016101000a81548160ff0219169083151502179055505050506103ec565b828054600181600116156101000203166002900490600052602060002090601f016020900481019282601f1061038857805160ff19168380011785556103b6565b828001600101855582156103b6579182015b828111156103b557825182559160200191906001019061039a565b5b5090506103c391906103c7565b5090565b6103e991905b808211156103e55760008160009055506001016103cd565b5090565b90565b61067e806103fb6000396000f3fe608060405234801561001057600080fd5b50600436106100935760003560e01c80639e39952e116100665780639e39952e14610228578063c7299da214610272578063dba53106146102bc578063e4dc20d6146102de578063e70fb1ce1461030e57610093565b806309bd5a60146100985780633e69d5a01461011b57806350f09fed1461014b57806392dea9221461016d575b600080fd5b6100a0610358565b6040518080602001828103825283818151815260200191508051906020019080838360005b838110156100e05780820151818401526020810190506100c5565b50505050905090810190601f16801561010d5780820380516001836020036101000a031916815260200191505b509250505060405180910390f35b6101496004803603602081101561013157600080fd5b810190808035151590602001909291905050506103f6565b005b610153610454565b604051808215151515815260200191505060405180910390f35b6102266004803603602081101561018357600080fd5b81019080803590602001906401000000008111156101a057600080fd5b8201836020820111156101b257600080fd5b803590602001918460018302840111640100000000831117156101d457600080fd5b91908080601f016020809104026020016040519081016040528093929190818152602001838380828437600081840152601f19601f820116905080830192505050505050509192919290505050610467565b005b6102306104c2565b604051808273ffffffffffffffffffffffffffffffffffffffff1673ffffffffffffffffffffffffffffffffffffffff16815260200191505060405180910390f35b61027a6104e8565b604051808273ffffffffffffffffffffffffffffffffffffffff1673ffffffffffffffffffffffffffffffffffffffff16815260200191505060405180910390f35b6102c461050d565b604051808215151515815260200191505060405180910390f35b61030c600480360360208110156102f457600080fd5b81019080803515159060200190929190505050610520565b005b61031661057e565b604051808273ffffffffffffffffffffffffffffffffffffffff1673ffffffffffffffffffffffffffffffffffffffff16815260200191505060405180910390f35b60038054600181600116156101000203166002900480601f0160208091040260200160405190810160405280929190818152602001828054600181600116156101000203166002900480156103ee5780601f106103c3576101008083540402835291602001916103ee565b820191906000526020600020905b8154815290600101906020018083116103d157829003601f168201915b505050505081565b33600160006101000a81548173ffffffffffffffffffffffffffffffffffffffff021916908373ffffffffffffffffffffffffffffffffffffffff16021790555080600460006101000a81548160ff02191690831515021790555050565b600460009054906101000a900460ff1681565b33600160006101000a81548173ffffffffffffffffffffffffffffffffffffffff021916908373ffffffffffffffffffffffffffffffffffffffff16021790555080600390805190602001906104be9291906105a4565b5050565b600160009054906101000a900473ffffffffffffffffffffffffffffffffffffffff1681565b6000809054906101000a900473ffffffffffffffffffffffffffffffffffffffff1681565b600460019054906101000a900460ff1681565b33600160006101000a81548173ffffffffffffffffffffffffffffffffffffffff021916908373ffffffffffffffffffffffffffffffffffffffff16021790555080600460016101000a81548160ff02191690831515021790555050565b600260009054906101000a900473ffffffffffffffffffffffffffffffffffffffff1681565b828054600181600116156101000203166002900490600052602060002090601f016020900481019282601f106105e557805160ff1916838001178555610613565b82800160010185558215610613579182015b828111156106125782518255916020019190600101906105f7565b5b5090506106209190610624565b5090565b61064691905b8082111561064257600081600090555060010161062a565b5090565b9056fea265627a7a72315820cdd8e136eff9552802aa3fc62082e9f7910c553360ab9ca7350d37d40045e7e064736f6c63430005100032",
  "source": "pragma solidity ^0.5.11;\n\ncontract ContractRegister {\n  function registerContract (address _requerant, address _contract) public {\n  }\n}\n\ncontract Contract {\n  address public created_by;\n  address public updated_by;\n  address public requerant;\n  string public hash;\n  bool public is_obsolet;\n  bool public is_pending;\n  ContractRegister internal register;\n\n  constructor (address _register, address _requerant, string memory _hash) public {\n    created_by = msg.sender;\n    updated_by = msg.sender;\n    requerant = _requerant;\n    hash = _hash;\n    register = ContractRegister(_register);\n    register.registerContract(_requerant, address(this));\n    is_obsolet = false;\n    is_pending = true;\n  }\n\n  function updateHash (string memory _hash) public {\n    updated_by = msg.sender;\n    hash = _hash;\n  }\n\n  function setIsObsolet (bool _is_obsolet) public {\n    updated_by = msg.sender;\n    is_obsolet = _is_obsolet;\n  }\n\n  function setIsPending (bool _is_pending) public {\n    updated_by = msg.sender;\n    is_pending = _is_pending;\n  }\n}\n",
  "sourcePath": "/home/stadja/workspace/local/scodes/truffle/heg_dab/contracts/Contract.sol",
  "compiler": {
    "name": "solc",
    "version": "0.5.16+commit.9c3226ce.Emscripten.clang"
  },
  "schemaVersion": "3.2.5",
  "updatedAt": "2020-09-29T16:20:39.315Z",
  "devdoc": {
    "methods": {}
  },
  "userdoc": {
    "methods": {}
  }
}