{
  "contractName": "Dab",
  "abi": [
    {
      "anonymous": false,
      "inputs": [
        {
          "indexed": false,
          "internalType": "string",
          "name": "hash",
          "type": "string"
        }
      ],
      "name": "hashUpdated",
      "type": "event"
    },
    {
      "anonymous": false,
      "inputs": [
        {
          "indexed": false,
          "internalType": "string",
          "name": "hash",
          "type": "string"
        }
      ],
      "name": "newProposal",
      "type": "event"
    },
    {
      "anonymous": false,
      "inputs": [
        {
          "indexed": false,
          "internalType": "string",
          "name": "hash",
          "type": "string"
        }
      ],
      "name": "proposalAccepted",
      "type": "event"
    },
    {
      "constant": false,
      "inputs": [
        {
          "internalType": "string",
          "name": "_hash",
          "type": "string"
        }
      ],
      "name": "acceptProposal",
      "outputs": [
        {
          "internalType": "bool",
          "name": "",
          "type": "bool"
        }
      ],
      "payable": false,
      "stateMutability": "nonpayable",
      "type": "function"
    },
    {
      "constant": false,
      "inputs": [
        {
          "internalType": "string",
          "name": "_newHash",
          "type": "string"
        }
      ],
      "name": "addProposal",
      "outputs": [
        {
          "internalType": "bool",
          "name": "",
          "type": "bool"
        }
      ],
      "payable": false,
      "stateMutability": "nonpayable",
      "type": "function"
    },
    {
      "constant": true,
      "inputs": [],
      "name": "created_by",
      "outputs": [
        {
          "internalType": "address",
          "name": "",
          "type": "address"
        }
      ],
      "payable": false,
      "stateMutability": "view",
      "type": "function"
    },
    {
      "constant": true,
      "inputs": [],
      "name": "currentHash",
      "outputs": [
        {
          "internalType": "string",
          "name": "",
          "type": "string"
        }
      ],
      "payable": false,
      "stateMutability": "view",
      "type": "function"
    },
    {
      "constant": true,
      "inputs": [],
      "name": "numberOfProposals",
      "outputs": [
        {
          "internalType": "uint256",
          "name": "",
          "type": "uint256"
        }
      ],
      "payable": false,
      "stateMutability": "view",
      "type": "function"
    },
    {
      "constant": true,
      "inputs": [
        {
          "internalType": "uint256",
          "name": "",
          "type": "uint256"
        }
      ],
      "name": "proposalIds",
      "outputs": [
        {
          "internalType": "string",
          "name": "",
          "type": "string"
        }
      ],
      "payable": false,
      "stateMutability": "view",
      "type": "function"
    },
    {
      "constant": true,
      "inputs": [
        {
          "internalType": "string",
          "name": "",
          "type": "string"
        }
      ],
      "name": "proposals",
      "outputs": [
        {
          "internalType": "address",
          "name": "proposer",
          "type": "address"
        },
        {
          "internalType": "bool",
          "name": "exists",
          "type": "bool"
        },
        {
          "internalType": "string",
          "name": "previousHash",
          "type": "string"
        }
      ],
      "payable": false,
      "stateMutability": "view",
      "type": "function"
    },
    {
      "constant": false,
      "inputs": [
        {
          "internalType": "string",
          "name": "_currentHash",
          "type": "string"
        },
        {
          "internalType": "string",
          "name": "_newHash",
          "type": "string"
        }
      ],
      "name": "updateHash",
      "outputs": [
        {
          "internalType": "bool",
          "name": "",
          "type": "bool"
        }
      ],
      "payable": false,
      "stateMutability": "nonpayable",
      "type": "function"
    },
    {
      "constant": true,
      "inputs": [],
      "name": "updated_by",
      "outputs": [
        {
          "internalType": "address",
          "name": "",
          "type": "address"
        }
      ],
      "payable": false,
      "stateMutability": "view",
      "type": "function"
    }
  ],
  "bytecode": "0x6080604052336000806101000a81548173ffffffffffffffffffffffffffffffffffffffff021916908373ffffffffffffffffffffffffffffffffffffffff1602179055506117d1806100536000396000f3fe608060405234801561001057600080fd5b50600436106100935760003560e01c80638d7af473116100665780638d7af4731461042b5780639b644a23146104495780639e39952e146104f0578063c7299da21461053a578063ffa0d2a41461058457610093565b80632e8a1716146100985780632fdae3c51461011b5780634ca9a979146101ee57806356c5aac314610358575b600080fd5b6100a06106f6565b6040518080602001828103825283818151815260200191508051906020019080838360005b838110156100e05780820151818401526020810190506100c5565b50505050905090810190601f16801561010d5780820380516001836020036101000a031916815260200191505b509250505060405180910390f35b6101d46004803603602081101561013157600080fd5b810190808035906020019064010000000081111561014e57600080fd5b82018360208201111561016057600080fd5b8035906020019184600183028401116401000000008311171561018257600080fd5b91908080601f016020809104026020016040519081016040528093929190818152602001838380828437600081840152601f19601f820116905080830192505050505050509192919290505050610794565b604051808215151515815260200191505060405180910390f35b61033e6004803603604081101561020457600080fd5b810190808035906020019064010000000081111561022157600080fd5b82018360208201111561023357600080fd5b8035906020019184600183028401116401000000008311171561025557600080fd5b91908080601f016020809104026020016040519081016040528093929190818152602001838380828437600081840152601f19601f820116905080830192505050505050509192919290803590602001906401000000008111156102b857600080fd5b8201836020820111156102ca57600080fd5b803590602001918460018302840111640100000000831117156102ec57600080fd5b91908080601f016020809104026020016040519081016040528093929190818152602001838380828437600081840152601f19601f820116905080830192505050505050509192919290505050610c8e565b604051808215151515815260200191505060405180910390f35b6104116004803603602081101561036e57600080fd5b810190808035906020019064010000000081111561038b57600080fd5b82018360208201111561039d57600080fd5b803590602001918460018302840111640100000000831117156103bf57600080fd5b91908080601f016020809104026020016040519081016040528093929190818152602001838380828437600081840152601f19601f820116905080830192505050505050509192919290505050610eef565b604051808215151515815260200191505060405180910390f35b610433611360565b6040518082815260200191505060405180910390f35b6104756004803603602081101561045f57600080fd5b8101908080359060200190929190505050611372565b6040518080602001828103825283818151815260200191508051906020019080838360005b838110156104b557808201518184015260208101905061049a565b50505050905090810190601f1680156104e25780820380516001836020036101000a031916815260200191505b509250505060405180910390f35b6104f861142b565b604051808273ffffffffffffffffffffffffffffffffffffffff1673ffffffffffffffffffffffffffffffffffffffff16815260200191505060405180910390f35b610542611451565b604051808273ffffffffffffffffffffffffffffffffffffffff1673ffffffffffffffffffffffffffffffffffffffff16815260200191505060405180910390f35b61063d6004803603602081101561059a57600080fd5b81019080803590602001906401000000008111156105b757600080fd5b8201836020820111156105c957600080fd5b803590602001918460018302840111640100000000831117156105eb57600080fd5b91908080601f016020809104026020016040519081016040528093929190818152602001838380828437600081840152601f19601f820116905080830192505050505050509192919290505050611476565b604051808473ffffffffffffffffffffffffffffffffffffffff1673ffffffffffffffffffffffffffffffffffffffff1681526020018315151515815260200180602001828103825283818151815260200191508051906020019080838360005b838110156106b957808201518184015260208101905061069e565b50505050905090810190601f1680156106e65780820380516001836020036101000a031916815260200191505b5094505050505060405180910390f35b60028054600181600116156101000203166002900480601f01602080910402602001604051908101604052809291908181526020018280546001816001161561010002031660029004801561078c5780601f106107615761010080835404028352916020019161078c565b820191906000526020600020905b81548152906001019060200180831161076f57829003601f168201915b505050505081565b60006003826040518082805190602001908083835b602083106107cc57805182526020820191506020810190506020830392506107a9565b6001836020036101000a038019825116818451168082178552505050505050905001915050908152602001604051809103902060000160149054906101000a900460ff1680156109795750600260405160200180828054600181600116156101000203166002900480156108775780601f10610855576101008083540402835291820191610877565b820191906000526020600020905b815481529060010190602001808311610863575b5050915050604051602081830303815290604052805190602001206003836040518082805190602001908083835b602083106108c857805182526020820191506020810190506020830392506108a5565b6001836020036101000a0380198251168184511680821785525050505050509050019150509081526020016040518091039020600101604051602001808280546001816001161561010002031660029004801561095c5780601f1061093a57610100808354040283529182019161095c565b820191906000526020600020905b815481529060010190602001808311610948575b505091505060405160208183030381529060405280519060200120145b156109ec576040517f08c379a000000000000000000000000000000000000000000000000000000000815260040180806020018281038252601b8152602001807f546869732070726f706f73616c20616c7265616479206578697374000000000081525060200191505060405180910390fd5b60405180606001604052803373ffffffffffffffffffffffffffffffffffffffff16815260200160011515815260200160028054600181600116156101000203166002900480601f016020809104026020016040519081016040528092919081815260200182805460018160011615610100020316600290048015610ab25780601f10610a8757610100808354040283529160200191610ab2565b820191906000526020600020905b815481529060010190602001808311610a9557829003601f168201915b50505050508152506003836040518082805190602001908083835b60208310610af05780518252602082019150602081019050602083039250610acd565b6001836020036101000a038019825116818451168082178552505050505050905001915050908152602001604051809103902060008201518160000160006101000a81548173ffffffffffffffffffffffffffffffffffffffff021916908373ffffffffffffffffffffffffffffffffffffffff16021790555060208201518160000160146101000a81548160ff0219169083151502179055506040820151816001019080519060200190610ba692919061157b565b509050506004829080600181540180825580915050906001820390600052602060002001600090919290919091509080519060200190610be79291906115fb565b50507f4f24186ab4979d925ec3577bfbaf413de47da1147f92c00b4ae1fe79c53f5a0c826040518080602001828103825283818151815260200191508051906020019080838360005b83811015610c4b578082015181840152602081019050610c30565b50505050905090810190601f168015610c785780820380516001836020036101000a031916815260200191505b509250505060405180910390a160019050919050565b600060026040516020018082805460018160011615610100020316600290048015610cf05780601f10610cce576101008083540402835291820191610cf0565b820191906000526020600020905b815481529060010190602001808311610cdc575b505091505060405160208183030381529060405280519060200120836040516020018082805190602001908083835b60208310610d425780518252602082019150602081019050602083039250610d1f565b6001836020036101000a0380198251168184511680821785525050505050509050019150506040516020818303038152906040528051906020012014610dd3576040517f08c379a000000000000000000000000000000000000000000000000000000000815260040180806020018281038252603d815260200180611736603d913960400191505060405180910390fd5b8160029080519060200190610de99291906115fb565b5033600160006101000a81548173ffffffffffffffffffffffffffffffffffffffff021916908373ffffffffffffffffffffffffffffffffffffffff1602179055507f772dd99b6f5be46fac4afca4f6bada4c6b2f86a7724fa1d23d84511e7158db3e60026040518080602001828103825283818154600181600116156101000203166002900481526020019150805460018160011615610100020316600290048015610ed75780601f10610eac57610100808354040283529160200191610ed7565b820191906000526020600020905b815481529060010190602001808311610eba57829003601f168201915b50509250505060405180910390a16001905092915050565b60006003826040518082805190602001908083835b60208310610f275780518252602082019150602081019050602083039250610f04565b6001836020036101000a038019825116818451168082178552505050505050905001915050908152602001604051809103902060000160149054906101000a900460ff16610fdd576040517f08c379a000000000000000000000000000000000000000000000000000000000815260040180806020018281038252601b8152602001807f546869732070726f706f73616c20646f65736e2774206578697374000000000081525060200191505060405180910390fd5b6002604051602001808280546001816001161561010002031660029004801561103d5780601f1061101b57610100808354040283529182019161103d565b820191906000526020600020905b815481529060010190602001808311611029575b5050915050604051602081830303815290604052805190602001206003836040518082805190602001908083835b6020831061108e578051825260208201915060208101905060208303925061106b565b6001836020036101000a038019825116818451168082178552505050505050905001915050908152602001604051809103902060010160405160200180828054600181600116156101000203166002900480156111225780601f10611100576101008083540402835291820191611122565b820191906000526020600020905b81548152906001019060200180831161110e575b50509150506040516020818303038152906040528051906020012014611193576040517f08c379a000000000000000000000000000000000000000000000000000000000815260040180806020018281038252602a815260200180611773602a913960400191505060405180910390fd5b7f5fee5f0f4677bb6b478e6288c343995c7e31bbec0987f077b0d1594c4861c289826040518080602001828103825283818151815260200191508051906020019080838360005b838110156111f55780820151818401526020810190506111da565b50505050905090810190601f1680156112225780820380516001836020036101000a031916815260200191505b509250505060405180910390a1600061133f6003846040518082805190602001908083835b6020831061126a5780518252602082019150602081019050602083039250611247565b6001836020036101000a03801982511681845116808217855250505050505090500191505090815260200160405180910390206001018054600181600116156101000203166002900480601f0160208091040260200160405190810160405280929190818152602001828054600181600116156101000203166002900480156113345780601f1061130957610100808354040283529160200191611334565b820191906000526020600020905b81548152906001019060200180831161131757829003601f168201915b505050505084610c8e565b905080156113565760046000611355919061167b565b5b6001915050919050565b60008060048054905090508091505090565b6004818154811061137f57fe5b906000526020600020016000915090508054600181600116156101000203166002900480601f0160208091040260200160405190810160405280929190818152602001828054600181600116156101000203166002900480156114235780601f106113f857610100808354040283529160200191611423565b820191906000526020600020905b81548152906001019060200180831161140657829003601f168201915b505050505081565b600160009054906101000a900473ffffffffffffffffffffffffffffffffffffffff1681565b6000809054906101000a900473ffffffffffffffffffffffffffffffffffffffff1681565b6003818051602081018201805184825260208301602085012081835280955050505050506000915090508060000160009054906101000a900473ffffffffffffffffffffffffffffffffffffffff16908060000160149054906101000a900460ff1690806001018054600181600116156101000203166002900480601f0160208091040260200160405190810160405280929190818152602001828054600181600116156101000203166002900480156115715780601f1061154657610100808354040283529160200191611571565b820191906000526020600020905b81548152906001019060200180831161155457829003601f168201915b5050505050905083565b828054600181600116156101000203166002900490600052602060002090601f016020900481019282601f106115bc57805160ff19168380011785556115ea565b828001600101855582156115ea579182015b828111156115e95782518255916020019190600101906115ce565b5b5090506115f7919061169c565b5090565b828054600181600116156101000203166002900490600052602060002090601f016020900481019282601f1061163c57805160ff191683800117855561166a565b8280016001018555821561166a579182015b8281111561166957825182559160200191906001019061164e565b5b509050611677919061169c565b5090565b508054600082559060005260206000209081019061169991906116c1565b50565b6116be91905b808211156116ba5760008160009055506001016116a2565b5090565b90565b6116ea91905b808211156116e657600081816116dd91906116ed565b506001016116c7565b5090565b90565b50805460018160011615610100020316600290046000825580601f106117135750611732565b601f016020900490600052602060002090810190611731919061169c565b5b5056fe596f75722063757272656e742076657273696f6e206973206e6f742075702d746f2d646174652c20636f6e63757272656e63792070726f626c656d203f596f752063616e27742061636365707420616e206f7574206f6620646174652070726f706f73616c2021a265627a7a7231582052ac5ee79d9068e7c897c3ef567bebfcc920abfd3110ffc7d0403f3612ff328964736f6c63430005100032",
  "source": "pragma solidity ^0.5.11;\n\nimport \"./Shared_Table.sol\";\n\ncontract Dab is Shared_Table {\n}\n",
  "sourcePath": "/home/stadja/workspace/local/scodes/truffle/heg_dab/contracts/Dab.sol",
  "compiler": {
    "name": "solc",
    "version": "0.5.16+commit.9c3226ce.Emscripten.clang"
  },
  "schemaVersion": "3.4.16",
  "updatedAt": "2023-10-24T09:15:38.282Z",
  "networkType": "ethereum",
  "devdoc": {
    "methods": {}
  },
  "userdoc": {
    "methods": {
      "acceptProposal(string)": {
        "notice": "/ To accept a proposal"
      },
      "addProposal(string)": {
        "notice": "/ To add a new proposal"
      },
      "updateHash(string,string)": {
        "notice": "/ To update a the current hash without the proposal part"
      }
    }
  }
}