{
  "contractName": "RequestRegister",
  "abi": [
    {
      "inputs": [],
      "payable": false,
      "stateMutability": "nonpayable",
      "type": "constructor"
    },
    {
      "anonymous": false,
      "inputs": [],
      "name": "registerHasChanged",
      "type": "event"
    },
    {
      "constant": true,
      "inputs": [],
      "name": "created_by",
      "outputs": [
        {
          "internalType": "address",
          "name": "",
          "type": "address"
        }
      ],
      "payable": false,
      "stateMutability": "view",
      "type": "function"
    },
    {
      "constant": true,
      "inputs": [
        {
          "internalType": "address",
          "name": "",
          "type": "address"
        }
      ],
      "name": "requerants",
      "outputs": [
        {
          "internalType": "address",
          "name": "requerant_address",
          "type": "address"
        },
        {
          "internalType": "bool",
          "name": "exists",
          "type": "bool"
        }
      ],
      "payable": false,
      "stateMutability": "view",
      "type": "function"
    },
    {
      "constant": true,
      "inputs": [
        {
          "internalType": "uint256",
          "name": "",
          "type": "uint256"
        }
      ],
      "name": "requerants_addresses",
      "outputs": [
        {
          "internalType": "address",
          "name": "",
          "type": "address"
        }
      ],
      "payable": false,
      "stateMutability": "view",
      "type": "function"
    },
    {
      "constant": true,
      "inputs": [],
      "name": "updated_by",
      "outputs": [
        {
          "internalType": "address",
          "name": "",
          "type": "address"
        }
      ],
      "payable": false,
      "stateMutability": "view",
      "type": "function"
    },
    {
      "constant": false,
      "inputs": [
        {
          "internalType": "address",
          "name": "_requerantAddress",
          "type": "address"
        },
        {
          "internalType": "address",
          "name": "_requestAddress",
          "type": "address"
        },
        {
          "internalType": "enum RequestRegister.RequestStatus",
          "name": "_status",
          "type": "uint8"
        }
      ],
      "name": "setRequestStatus",
      "outputs": [],
      "payable": false,
      "stateMutability": "nonpayable",
      "type": "function"
    },
    {
      "constant": false,
      "inputs": [
        {
          "internalType": "address",
          "name": "_requerantAddress",
          "type": "address"
        },
        {
          "internalType": "address",
          "name": "_requestAddress",
          "type": "address"
        }
      ],
      "name": "registerRequest",
      "outputs": [],
      "payable": false,
      "stateMutability": "nonpayable",
      "type": "function"
    },
    {
      "constant": true,
      "inputs": [
        {
          "internalType": "address",
          "name": "_requerantAddress",
          "type": "address"
        },
        {
          "internalType": "address",
          "name": "_requestAddress",
          "type": "address"
        }
      ],
      "name": "isRequestExists",
      "outputs": [
        {
          "internalType": "bool",
          "name": "",
          "type": "bool"
        }
      ],
      "payable": false,
      "stateMutability": "view",
      "type": "function"
    },
    {
      "constant": true,
      "inputs": [
        {
          "internalType": "address",
          "name": "_requerantAddress",
          "type": "address"
        }
      ],
      "name": "getRequests",
      "outputs": [
        {
          "internalType": "address[][3]",
          "name": "",
          "type": "address[][3]"
        }
      ],
      "payable": false,
      "stateMutability": "view",
      "type": "function"
    }
  ],
  "bytecode": "0x608060405234801561001057600080fd5b50336000806101000a81548173ffffffffffffffffffffffffffffffffffffffff021916908373ffffffffffffffffffffffffffffffffffffffff16021790555033600160006101000a81548173ffffffffffffffffffffffffffffffffffffffff021916908373ffffffffffffffffffffffffffffffffffffffff160217905550611736806100a16000396000f3fe608060405234801561001057600080fd5b50600436106100885760003560e01c80639e39952e1161005b5780639e39952e14610126578063a356e49314610144578063c7299da214610174578063f0ef4d3c1461019257610088565b8063804e44f31461008d5780638a5bb142146100bd57806399336441146100d95780639a9ded26146100f5575b600080fd5b6100a760048036036100a291908101906112ac565b6101c2565b6040516100b49190611579565b60405180910390f35b6100d760048036036100d29190810190611311565b61090a565b005b6100f360048036036100ee91908101906112d5565b610a27565b005b61010f600480360361010a91908101906112ac565b610f1d565b60405161011d929190611550565b60405180910390f35b61012e610f6e565b60405161013b9190611535565b60405180910390f35b61015e600480360361015991908101906112d5565b610f94565b60405161016b919061159b565b60405180910390f35b61017c61109b565b6040516101899190611535565b60405180910390f35b6101ac60048036036101a79190810190611360565b6110c0565b6040516101b99190611535565b60405180910390f35b6101ca6110fc565b600260008373ffffffffffffffffffffffffffffffffffffffff1673ffffffffffffffffffffffffffffffffffffffff16815260200190815260200160002060000160149054906101000a900460ff16610259576040517f08c379a0000000000000000000000000000000000000000000000000000000008152600401610250906115b6565b60405180910390fd5b6000600260008473ffffffffffffffffffffffffffffffffffffffff1673ffffffffffffffffffffffffffffffffffffffff16815260200190815260200160002060020180549050905060008090506000809050600080905060008090505b8481101561050a576000600260008973ffffffffffffffffffffffffffffffffffffffff1673ffffffffffffffffffffffffffffffffffffffff168152602001908152602001600020600201828154811061030f57fe5b9060005260206000200160009054906101000a900473ffffffffffffffffffffffffffffffffffffffff169050610344611123565b600260008a73ffffffffffffffffffffffffffffffffffffffff1673ffffffffffffffffffffffffffffffffffffffff16815260200190815260200160002060010160008373ffffffffffffffffffffffffffffffffffffffff1673ffffffffffffffffffffffffffffffffffffffff1681526020019081526020016000206040518060600160405290816000820160009054906101000a900473ffffffffffffffffffffffffffffffffffffffff1673ffffffffffffffffffffffffffffffffffffffff1673ffffffffffffffffffffffffffffffffffffffff1681526020016000820160149054906101000a900460ff161515151581526020016000820160159054906101000a900460ff16600281111561045d57fe5b600281111561046857fe5b8152505090506000600281111561047b57fe5b8160400151600281111561048b57fe5b141561049e5785806001019650506104fb565b600160028111156104ab57fe5b816040015160028111156104bb57fe5b14156104ce5784806001019550506104fa565b6002808111156104da57fe5b816040015160028111156104ea57fe5b14156104f95783806001019450505b5b5b505080806001019150506102b8565b5060608360405190808252806020026020018201604052801561053c5781602001602082028038833980820191505090505b5090506060836040519080825280602002602001820160405280156105705781602001602082028038833980820191505090505b5090506060836040519080825280602002602001820160405280156105a45781602001602082028038833980820191505090505b50905060009550600094506000935060008090505b878110156108e0576000600260008c73ffffffffffffffffffffffffffffffffffffffff1673ffffffffffffffffffffffffffffffffffffffff168152602001908152602001600020600201828154811061061057fe5b9060005260206000200160009054906101000a900473ffffffffffffffffffffffffffffffffffffffff169050610645611123565b600260008d73ffffffffffffffffffffffffffffffffffffffff1673ffffffffffffffffffffffffffffffffffffffff16815260200190815260200160002060010160008373ffffffffffffffffffffffffffffffffffffffff1673ffffffffffffffffffffffffffffffffffffffff1681526020019081526020016000206040518060600160405290816000820160009054906101000a900473ffffffffffffffffffffffffffffffffffffffff1673ffffffffffffffffffffffffffffffffffffffff1673ffffffffffffffffffffffffffffffffffffffff1681526020016000820160149054906101000a900460ff161515151581526020016000820160159054906101000a900460ff16600281111561075e57fe5b600281111561076957fe5b8152505090506000600281111561077c57fe5b8160400151600281111561078c57fe5b14156107e65781868a8151811061079f57fe5b602002602001019073ffffffffffffffffffffffffffffffffffffffff16908173ffffffffffffffffffffffffffffffffffffffff168152505088806001019950506108d1565b600160028111156107f357fe5b8160400151600281111561080357fe5b141561085d578185898151811061081657fe5b602002602001019073ffffffffffffffffffffffffffffffffffffffff16908173ffffffffffffffffffffffffffffffffffffffff168152505087806001019850506108d0565b60028081111561086957fe5b8160400151600281111561087957fe5b14156108cf578184888151811061088c57fe5b602002602001019073ffffffffffffffffffffffffffffffffffffffff16908173ffffffffffffffffffffffffffffffffffffffff168152505086806001019750505b5b5b505080806001019150506105b9565b50604051806060016040528084815260200183815260200182815250975050505050505050919050565b6109148383610f94565b610953576040517f08c379a000000000000000000000000000000000000000000000000000000000815260040161094a906115d6565b60405180910390fd5b80600260008573ffffffffffffffffffffffffffffffffffffffff1673ffffffffffffffffffffffffffffffffffffffff16815260200190815260200160002060010160008473ffffffffffffffffffffffffffffffffffffffff1673ffffffffffffffffffffffffffffffffffffffff16815260200190815260200160002060000160156101000a81548160ff021916908360028111156109f157fe5b02179055507fb7eaea0614d0564c15cbe8b0af7e55cc8f43aa2f0d3f5c54a6ba2fccecd7c07b60405160405180910390a1505050565b610a318282610f94565b15610a71576040517f08c379a0000000000000000000000000000000000000000000000000000000008152600401610a68906115d6565b60405180910390fd5b33600160006101000a81548173ffffffffffffffffffffffffffffffffffffffff021916908373ffffffffffffffffffffffffffffffffffffffff160217905550600260008373ffffffffffffffffffffffffffffffffffffffff1673ffffffffffffffffffffffffffffffffffffffff16815260200190815260200160002060000160149054906101000a900460ff16610cbf57610b0e611167565b82816000019073ffffffffffffffffffffffffffffffffffffffff16908173ffffffffffffffffffffffffffffffffffffffff168152505060018160200190151590811515815250506000604051908082528060200260200182016040528015610b875781602001602082028038833980820191505090505b50816040018190525080600260008573ffffffffffffffffffffffffffffffffffffffff1673ffffffffffffffffffffffffffffffffffffffff16815260200190815260200160002060008201518160000160006101000a81548173ffffffffffffffffffffffffffffffffffffffff021916908373ffffffffffffffffffffffffffffffffffffffff16021790555060208201518160000160146101000a81548160ff0219169083151502179055506040820151816002019080519060200190610c539291906111a0565b5090505060038390806001815401808255809150509060018203906000526020600020016000909192909190916101000a81548173ffffffffffffffffffffffffffffffffffffffff021916908373ffffffffffffffffffffffffffffffffffffffff16021790555050505b610cc7611123565b81816000019073ffffffffffffffffffffffffffffffffffffffff16908173ffffffffffffffffffffffffffffffffffffffff16815250506001816020019015159081151581525050600081604001906002811115610d2257fe5b90816002811115610d2f57fe5b8152505080600260008573ffffffffffffffffffffffffffffffffffffffff1673ffffffffffffffffffffffffffffffffffffffff16815260200190815260200160002060010160008473ffffffffffffffffffffffffffffffffffffffff1673ffffffffffffffffffffffffffffffffffffffff16815260200190815260200160002060008201518160000160006101000a81548173ffffffffffffffffffffffffffffffffffffffff021916908373ffffffffffffffffffffffffffffffffffffffff16021790555060208201518160000160146101000a81548160ff02191690831515021790555060408201518160000160156101000a81548160ff02191690836002811115610e3e57fe5b0217905550905050600260008473ffffffffffffffffffffffffffffffffffffffff1673ffffffffffffffffffffffffffffffffffffffff1681526020019081526020016000206002018290806001815401808255809150509060018203906000526020600020016000909192909190916101000a81548173ffffffffffffffffffffffffffffffffffffffff021916908373ffffffffffffffffffffffffffffffffffffffff160217905550507fb7eaea0614d0564c15cbe8b0af7e55cc8f43aa2f0d3f5c54a6ba2fccecd7c07b60405160405180910390a1505050565b60026020528060005260406000206000915090508060000160009054906101000a900473ffffffffffffffffffffffffffffffffffffffff16908060000160149054906101000a900460ff16905082565b600160009054906101000a900473ffffffffffffffffffffffffffffffffffffffff1681565b6000600260008473ffffffffffffffffffffffffffffffffffffffff1673ffffffffffffffffffffffffffffffffffffffff16815260200190815260200160002060000160149054906101000a900460ff16610ff35760009050611095565b600260008473ffffffffffffffffffffffffffffffffffffffff1673ffffffffffffffffffffffffffffffffffffffff16815260200190815260200160002060010160008373ffffffffffffffffffffffffffffffffffffffff1673ffffffffffffffffffffffffffffffffffffffff16815260200190815260200160002060000160149054906101000a900460ff166110905760009050611095565b600190505b92915050565b6000809054906101000a900473ffffffffffffffffffffffffffffffffffffffff1681565b600381815481106110cd57fe5b906000526020600020016000915054906101000a900473ffffffffffffffffffffffffffffffffffffffff1681565b60405180606001604052806003905b606081526020019060019003908161110b5790505090565b6040518060600160405280600073ffffffffffffffffffffffffffffffffffffffff1681526020016000151581526020016000600281111561116157fe5b81525090565b6040518060600160405280600073ffffffffffffffffffffffffffffffffffffffff168152602001600015158152602001606081525090565b828054828255906000526020600020908101928215611219579160200282015b828111156112185782518260006101000a81548173ffffffffffffffffffffffffffffffffffffffff021916908373ffffffffffffffffffffffffffffffffffffffff160217905550916020019190600101906111c0565b5b509050611226919061122a565b5090565b61126a91905b8082111561126657600081816101000a81549073ffffffffffffffffffffffffffffffffffffffff021916905550600101611230565b5090565b90565b60008135905061127c816116b5565b92915050565b600081359050611291816116cc565b92915050565b6000813590506112a6816116dc565b92915050565b6000602082840312156112be57600080fd5b60006112cc8482850161126d565b91505092915050565b600080604083850312156112e857600080fd5b60006112f68582860161126d565b92505060206113078582860161126d565b9150509250929050565b60008060006060848603121561132657600080fd5b60006113348682870161126d565b93505060206113458682870161126d565b925050604061135686828701611282565b9150509250925092565b60006020828403121561137257600080fd5b600061138084828501611297565b91505092915050565b600061139583836113b5565b60208301905092915050565b60006113ad83836113d3565b905092915050565b6113be8161166d565b82525050565b6113cd8161166d565b82525050565b60006113de82611610565b6113e88185611640565b93506113f3836115f6565b8060005b8381101561142457815161140b8882611389565b975061141683611626565b9250506001810190506113f7565b5085935050505092915050565b600061143c8261161b565b6114468185611651565b93508360208202850161145885611606565b8060005b85811015611494578484038952815161147585826113a1565b945061148083611633565b925060208a0199505060018101905061145c565b50829750879550505050505092915050565b6114af8161167f565b82525050565b60006114c260178361165c565b91507f526571756572616e7420646f65736e27742065786973740000000000000000006000830152602082019050919050565b600061150260168361165c565b91507f5265717565737420616c726561647920657869737473000000000000000000006000830152602082019050919050565b600060208201905061154a60008301846113c4565b92915050565b600060408201905061156560008301856113c4565b61157260208301846114a6565b9392505050565b600060208201905081810360008301526115938184611431565b905092915050565b60006020820190506115b060008301846114a6565b92915050565b600060208201905081810360008301526115cf816114b5565b9050919050565b600060208201905081810360008301526115ef816114f5565b9050919050565b6000819050602082019050919050565b6000819050919050565b600081519050919050565b600060039050919050565b6000602082019050919050565b6000602082019050919050565b600082825260208201905092915050565b600081905092915050565b600082825260208201905092915050565b60006116788261168b565b9050919050565b60008115159050919050565b600073ffffffffffffffffffffffffffffffffffffffff82169050919050565b6000819050919050565b6116be8161166d565b81146116c957600080fd5b50565b600381106116d957600080fd5b50565b6116e5816116ab565b81146116f057600080fd5b5056fea365627a7a7231582078da4396f9d649dc587ec2a0be38b85a95b171f57322feefa9148c8a9de3e6e86c6578706572696d656e74616cf564736f6c63430005100040",
  "source": "pragma solidity ^0.5.11;\npragma experimental ABIEncoderV2;\n\ncontract RequestRegister {\n\n  event registerHasChanged(\n  );\n\n  address public created_by;\n  address public updated_by;\n\n  enum RequestStatus { Pending, Accepted, Refused }\n\n  struct Request {\n    address request_address;\n    bool exists;\n    RequestStatus status;\n  }\n\n  struct Requerant {\n    address requerant_address;\n    bool exists;\n    mapping(address => Request) requests;\n    address[] requests_addresses;\n  }\n\n  mapping(address => Requerant) public requerants;\n  address[] public requerants_addresses;\n\n  constructor () public {\n    created_by = msg.sender;\n    updated_by = msg.sender;\n  }\n\n  function setRequestStatus (address _requerantAddress, address _requestAddress, RequestStatus _status) public {\n    require(isRequestExists(_requerantAddress,_requestAddress), \"Request already exists\");\n    requerants[_requerantAddress].requests[_requestAddress].status = _status;\n    emit registerHasChanged();\n  }\n\n  function registerRequest (address _requerantAddress, address _requestAddress) public {\n    require(!isRequestExists(_requerantAddress,_requestAddress), \"Request already exists\");\n\n    updated_by = msg.sender;\n    if (!requerants[_requerantAddress].exists) {\n      Requerant memory requerant;\n      requerant.requerant_address = _requerantAddress;\n      requerant.exists = true;\n      requerant.requests_addresses = new address[](0);\n      requerants[_requerantAddress] = requerant;\n      requerants_addresses.push(_requerantAddress);\n    }\n\n    Request memory request;\n    request.request_address = _requestAddress;\n    request.exists = true;\n    request.status = RequestStatus.Pending;\n\n    requerants[_requerantAddress].requests[_requestAddress] = request;\n    requerants[_requerantAddress].requests_addresses.push(_requestAddress);\n    emit registerHasChanged();\n  }\n\n  function isRequestExists (address _requerantAddress, address _requestAddress) public view returns (bool) {\n    if (!requerants[_requerantAddress].exists) {\n      return false;\n    }\n    if (!requerants[_requerantAddress].requests[_requestAddress].exists) {\n      return false;\n    }\n\n    return true;\n  }\n\n  function getRequests (address _requerantAddress) public view returns (address[][3] memory){\n    require(requerants[_requerantAddress].exists, \"Requerant doesn't exist\");\n\n    uint arrayLength = requerants[_requerantAddress].requests_addresses.length;\n\n    uint pendingIndex = 0;\n    uint acceptedIndex = 0;\n    uint refusedIndex = 0;\n\n    for (uint i = 0; i < arrayLength; i++) {\n      address requestAddress = requerants[_requerantAddress].requests_addresses[i];\n      Request memory request = requerants[_requerantAddress].requests[requestAddress];\n\n      if (request.status == RequestStatus.Pending) {\n          pendingIndex++;\n      } else if (request.status == RequestStatus.Accepted) {\n          acceptedIndex++;\n      } else if (request.status == RequestStatus.Refused) {\n          refusedIndex++;\n      }\n    }\n\n    address[] memory pending = new address[](pendingIndex);\n    address[] memory accepted = new address[](acceptedIndex);\n    address[] memory refused = new address[](refusedIndex);\n    pendingIndex = 0;\n    acceptedIndex = 0;\n    refusedIndex = 0;\n\n    for (uint i = 0; i < arrayLength; i++) {\n      address requestAddress = requerants[_requerantAddress].requests_addresses[i];\n      Request memory request = requerants[_requerantAddress].requests[requestAddress];\n\n      if (request.status == RequestStatus.Pending) {\n          pending[pendingIndex] = requestAddress;\n          pendingIndex++;\n      } else if (request.status == RequestStatus.Accepted) {\n          accepted[acceptedIndex] = requestAddress;\n          acceptedIndex++;\n      } else if (request.status == RequestStatus.Refused) {\n          refused[refusedIndex] = requestAddress;\n          refusedIndex++;\n      }\n    }\n\n    return [pending, accepted, refused];\n  }\n}\n",
  "sourcePath": "/home/stadja/workspace/local/scodes/truffle/heg_dab/contracts/RequestRegister.sol",
  "compiler": {
    "name": "solc",
    "version": "0.5.16+commit.9c3226ce.Emscripten.clang"
  },
  "schemaVersion": "3.4.16",
  "updatedAt": "2023-10-24T09:48:33.928Z",
  "networkType": "ethereum",
  "devdoc": {
    "methods": {}
  },
  "userdoc": {
    "methods": {}
  }
}